{
  "_format": "hh-sol-artifact-1",
  "contractName": "StoreEvent",
  "sourceName": "contracts/StoreEvent.sol",
  "abi": [
    {
      "inputs": [],
      "stateMutability": "nonpayable",
      "type": "constructor"
    },
    {
      "inputs": [
        {
          "internalType": "address",
          "name": "owner",
          "type": "address"
        }
      ],
      "name": "OwnableInvalidOwner",
      "type": "error"
    },
    {
      "inputs": [
        {
          "internalType": "address",
          "name": "account",
          "type": "address"
        }
      ],
      "name": "OwnableUnauthorizedAccount",
      "type": "error"
    },
    {
      "anonymous": false,
      "inputs": [
        {
          "indexed": true,
          "internalType": "address",
          "name": "previousOwner",
          "type": "address"
        },
        {
          "indexed": true,
          "internalType": "address",
          "name": "newOwner",
          "type": "address"
        }
      ],
      "name": "OwnershipTransferred",
      "type": "event"
    },
    {
      "anonymous": false,
      "inputs": [
        {
          "indexed": false,
          "internalType": "address",
          "name": "store",
          "type": "address"
        }
      ],
      "name": "RegisterStoreEvent",
      "type": "event"
    },
    {
      "anonymous": false,
      "inputs": [
        {
          "indexed": true,
          "internalType": "uint256",
          "name": "itemId",
          "type": "uint256"
        },
        {
          "indexed": true,
          "internalType": "uint256",
          "name": "price",
          "type": "uint256"
        },
        {
          "indexed": true,
          "internalType": "address",
          "name": "store",
          "type": "address"
        },
        {
          "indexed": false,
          "internalType": "string",
          "name": "itemName",
          "type": "string"
        },
        {
          "indexed": false,
          "internalType": "string",
          "name": "itemDescription",
          "type": "string"
        },
        {
          "indexed": false,
          "internalType": "string[]",
          "name": "tags",
          "type": "string[]"
        },
        {
          "indexed": false,
          "internalType": "bytes",
          "name": "metadata",
          "type": "bytes"
        }
      ],
      "name": "ReleaseItemEvent",
      "type": "event"
    },
    {
      "anonymous": false,
      "inputs": [
        {
          "indexed": true,
          "internalType": "uint256",
          "name": "itemId",
          "type": "uint256"
        },
        {
          "indexed": true,
          "internalType": "address",
          "name": "store",
          "type": "address"
        },
        {
          "indexed": false,
          "internalType": "string",
          "name": "itemName",
          "type": "string"
        },
        {
          "indexed": false,
          "internalType": "string",
          "name": "itemDescription",
          "type": "string"
        },
        {
          "indexed": false,
          "internalType": "string[]",
          "name": "tags",
          "type": "string[]"
        }
      ],
      "name": "RemoveItemEvent",
      "type": "event"
    },
    {
      "inputs": [],
      "name": "owner",
      "outputs": [
        {
          "internalType": "address",
          "name": "",
          "type": "address"
        }
      ],
      "stateMutability": "view",
      "type": "function"
    },
    {
      "inputs": [
        {
          "internalType": "address",
          "name": "_newStore",
          "type": "address"
        }
      ],
      "name": "registerStore",
      "outputs": [],
      "stateMutability": "nonpayable",
      "type": "function"
    },
    {
      "inputs": [
        {
          "internalType": "uint256",
          "name": "_itemId",
          "type": "uint256"
        },
        {
          "internalType": "uint256",
          "name": "_price",
          "type": "uint256"
        },
        {
          "internalType": "string",
          "name": "_itemName",
          "type": "string"
        },
        {
          "internalType": "string",
          "name": "_itemDes",
          "type": "string"
        },
        {
          "internalType": "string[]",
          "name": "tag",
          "type": "string[]"
        },
        {
          "internalType": "bytes",
          "name": "metadata",
          "type": "bytes"
        }
      ],
      "name": "releaseItem",
      "outputs": [],
      "stateMutability": "nonpayable",
      "type": "function"
    },
    {
      "inputs": [
        {
          "internalType": "uint256",
          "name": "_itemId",
          "type": "uint256"
        },
        {
          "internalType": "string",
          "name": "_itemName",
          "type": "string"
        },
        {
          "internalType": "string",
          "name": "_itemDes",
          "type": "string"
        },
        {
          "internalType": "string[]",
          "name": "tag",
          "type": "string[]"
        }
      ],
      "name": "removeItem",
      "outputs": [],
      "stateMutability": "nonpayable",
      "type": "function"
    },
    {
      "inputs": [],
      "name": "renounceOwnership",
      "outputs": [],
      "stateMutability": "nonpayable",
      "type": "function"
    },
    {
      "inputs": [
        {
          "internalType": "address",
          "name": "newOwner",
          "type": "address"
        }
      ],
      "name": "transferOwnership",
      "outputs": [],
      "stateMutability": "nonpayable",
      "type": "function"
    }
  ],
  "bytecode": "0x6080604052348015600f57600080fd5b503380603557604051631e4fbdf760e01b81526000600482015260240160405180910390fd5b603c816041565b506091565b600080546001600160a01b038381166001600160a01b0319831681178455604051919092169283917f8be0079c531659141344cd1fd0a4f28419497f9722a3daafe3b4186f6b6457e09190a35050565b6107bd806100a06000396000f3fe608060405234801561001057600080fd5b50600436106100625760003560e01c806329be3ea214610067578063715018a61461007c5780638da5cb5b14610084578063be40fe4b146100a3578063e06f80de146100b6578063f2fde38b146100c9575b600080fd5b61007a61007536600461034e565b6100dc565b005b61007a61013f565b600054604080516001600160a01b039092168252519081900360200190f35b61007a6100b13660046104e4565b610153565b61007a6100c43660046105b6565b6101f8565b61007a6100d736600461034e565b610293565b6100e46102d1565b6001600160a01b038116600081815260016020818152604092839020805460ff191690921790915590519182527f1d294455c8273cfd9ee62cef3b30facb58dad44312c2a6f27b3015c2dc10ab38910160405180910390a150565b6101476102d1565b61015160006102fe565b565b3360009081526001602052604090205460ff166101a75760405162461bcd60e51b815260206004820152600d60248201526c496e76616c69642073746f726560981b60448201526064015b60405180910390fd5b336001600160a01b031685877fb3f6700aaaffc76a6897459156f0c538d5e62c884aa69072c86ed5bb8fcb39ea878787876040516101e894939291906106f6565b60405180910390a4505050505050565b3360009081526001602052604090205460ff166102475760405162461bcd60e51b815260206004820152600d60248201526c496e76616c69642073746f726560981b604482015260640161019e565b336001600160a01b0316847f3b6b893233ed79aa3774578a12b047c750a3d0ad001e99b6c5feefa74549612e8585856040516102859392919061074e565b60405180910390a350505050565b61029b6102d1565b6001600160a01b0381166102c557604051631e4fbdf760e01b81526000600482015260240161019e565b6102ce816102fe565b50565b6000546001600160a01b031633146101515760405163118cdaa760e01b815233600482015260240161019e565b600080546001600160a01b038381166001600160a01b0319831681178455604051919092169283917f8be0079c531659141344cd1fd0a4f28419497f9722a3daafe3b4186f6b6457e09190a35050565b60006020828403121561036057600080fd5b81356001600160a01b038116811461037757600080fd5b9392505050565b634e487b7160e01b600052604160045260246000fd5b604051601f8201601f1916810167ffffffffffffffff811182821017156103bd576103bd61037e565b604052919050565b600082601f8301126103d657600080fd5b81356020830160008067ffffffffffffffff8411156103f7576103f761037e565b50601f8301601f191660200161040c81610394565b91505082815285838301111561042157600080fd5b82826020830137600092810160200192909252509392505050565b600082601f83011261044d57600080fd5b813567ffffffffffffffff8111156104675761046761037e565b8060051b61047760208201610394565b9182526020818501810192908101908684111561049357600080fd5b6020860192505b838310156104da57823567ffffffffffffffff8111156104b957600080fd5b6104c8886020838a01016103c5565b8352506020928301929091019061049a565b9695505050505050565b60008060008060008060c087890312156104fd57600080fd5b8635955060208701359450604087013567ffffffffffffffff81111561052257600080fd5b61052e89828a016103c5565b945050606087013567ffffffffffffffff81111561054b57600080fd5b61055789828a016103c5565b935050608087013567ffffffffffffffff81111561057457600080fd5b61058089828a0161043c565b92505060a087013567ffffffffffffffff81111561059d57600080fd5b6105a989828a016103c5565b9150509295509295509295565b600080600080608085870312156105cc57600080fd5b84359350602085013567ffffffffffffffff8111156105ea57600080fd5b6105f6878288016103c5565b935050604085013567ffffffffffffffff81111561061357600080fd5b61061f878288016103c5565b925050606085013567ffffffffffffffff81111561063c57600080fd5b6106488782880161043c565b91505092959194509250565b6000815180845260005b8181101561067a5760208185018101518683018201520161065e565b506000602082860101526020601f19601f83011685010191505092915050565b600082825180855260208501945060208160051b8301016020850160005b838110156106ea57601f198584030188526106d4838351610654565b60209889019890935091909101906001016106b8565b50909695505050505050565b6080815260006107096080830187610654565b828103602084015261071b8187610654565b9050828103604084015261072f818661069a565b905082810360608401526107438185610654565b979650505050505050565b6060815260006107616060830186610654565b82810360208401526107738186610654565b905082810360408401526104da818561069a56fea2646970667358221220ed4c8790244b3b09bd7f93532d757527881b7f88da713c05e0f4d79a28864e3164736f6c634300081b0033",
  "linkReferences": {},
  "deployedLinkReferences": {}
}